:100000009381010013810120138501E0938581E034
:1000100093020016630CB50003B3020023306500A1
:100020009382820013058500E318B5FE138581E0F5
:10003000938581E093028016630CB50003B3020040
:10004000233065009382820013058500E318B5FE16
:10005000EF00C005130101FD2334810213040103E5
:10006000233CA4FC232604FE83B701E02330F4FEE6
:100070006F00C0018327C4FE9B8717002326F4FE70
:10008000833704FE938717002330F4FE833704FE82
:1000900083C70700E39007FE8327C4FE138507008C
:1000A000033481021301010367800000130101FE84
:1000B000233C1100233881001304010283B701E0BF
:1000C00013850700EFF01FF9930705002324F4FEC2
:1000D000B7470140938707801307500023B8E70014
:1000E000232604FE6F00400403B701E08327C4FE0B
:1000F000B307F70003C70700B7470140938707809E
:1001000023B4E70013000000B7470140938707803E
:1001100083B7070093F70704E38807FE8327C4FE2D
:100120009B8717002326F4FE8327C4FE138707004E
:10013000832784FE1B0707009B870700E346F7FA27
:080140006FF01FFA000000003F
:10014800546F74616C20446F6D696E6174696F6E71
:0801580000000000000000009F
:0801600048010000000000004E
:00000001FF
